{
  "contractName": "Bandicoin",
  "abi": [
    {
      "constant": true,
      "inputs": [],
      "name": "name",
      "outputs": [
        {
          "name": "",
          "type": "string"
        }
      ],
      "payable": false,
      "stateMutability": "view",
      "type": "function"
    },
    {
      "constant": true,
      "inputs": [],
      "name": "decimals",
      "outputs": [
        {
          "name": "",
          "type": "uint8"
        }
      ],
      "payable": false,
      "stateMutability": "view",
      "type": "function"
    },
    {
      "constant": true,
      "inputs": [],
      "name": "symbol",
      "outputs": [
        {
          "name": "",
          "type": "string"
        }
      ],
      "payable": false,
      "stateMutability": "view",
      "type": "function"
    },
    {
      "inputs": [],
      "payable": false,
      "stateMutability": "nonpayable",
      "type": "constructor"
    },
    {
      "anonymous": false,
      "inputs": [
        {
          "indexed": false,
          "name": "from",
          "type": "address"
        },
        {
          "indexed": false,
          "name": "to",
          "type": "address"
        },
        {
          "indexed": false,
          "name": "amount",
          "type": "uint256"
        },
        {
          "indexed": true,
          "name": "bandit",
          "type": "address"
        },
        {
          "indexed": true,
          "name": "victim",
          "type": "address"
        },
        {
          "indexed": false,
          "name": "stolenAmount",
          "type": "uint256"
        }
      ],
      "name": "StolenFunds",
      "type": "event"
    },
    {
      "anonymous": false,
      "inputs": [
        {
          "indexed": true,
          "name": "from",
          "type": "address"
        },
        {
          "indexed": true,
          "name": "to",
          "type": "address"
        },
        {
          "indexed": false,
          "name": "value",
          "type": "uint256"
        }
      ],
      "name": "Transfer",
      "type": "event"
    },
    {
      "anonymous": false,
      "inputs": [
        {
          "indexed": true,
          "name": "owner",
          "type": "address"
        },
        {
          "indexed": true,
          "name": "spender",
          "type": "address"
        },
        {
          "indexed": false,
          "name": "value",
          "type": "uint256"
        }
      ],
      "name": "Approval",
      "type": "event"
    },
    {
      "constant": false,
      "inputs": [],
      "name": "moneyMoneyMoney",
      "outputs": [],
      "payable": false,
      "stateMutability": "nonpayable",
      "type": "function"
    },
    {
      "constant": true,
      "inputs": [],
      "name": "totalSupply",
      "outputs": [
        {
          "name": "",
          "type": "uint256"
        }
      ],
      "payable": false,
      "stateMutability": "view",
      "type": "function"
    },
    {
      "constant": true,
      "inputs": [
        {
          "name": "account",
          "type": "address"
        }
      ],
      "name": "balanceOf",
      "outputs": [
        {
          "name": "",
          "type": "uint256"
        }
      ],
      "payable": false,
      "stateMutability": "view",
      "type": "function"
    },
    {
      "constant": false,
      "inputs": [
        {
          "name": "recipient",
          "type": "address"
        },
        {
          "name": "amount",
          "type": "uint256"
        }
      ],
      "name": "transfer",
      "outputs": [
        {
          "name": "",
          "type": "bool"
        }
      ],
      "payable": false,
      "stateMutability": "nonpayable",
      "type": "function"
    },
    {
      "constant": true,
      "inputs": [
        {
          "name": "owner",
          "type": "address"
        },
        {
          "name": "spender",
          "type": "address"
        }
      ],
      "name": "allowance",
      "outputs": [
        {
          "name": "",
          "type": "uint256"
        }
      ],
      "payable": false,
      "stateMutability": "view",
      "type": "function"
    },
    {
      "constant": false,
      "inputs": [
        {
          "name": "spender",
          "type": "address"
        },
        {
          "name": "value",
          "type": "uint256"
        }
      ],
      "name": "approve",
      "outputs": [
        {
          "name": "",
          "type": "bool"
        }
      ],
      "payable": false,
      "stateMutability": "nonpayable",
      "type": "function"
    },
    {
      "constant": false,
      "inputs": [
        {
          "name": "sender",
          "type": "address"
        },
        {
          "name": "recipient",
          "type": "address"
        },
        {
          "name": "amount",
          "type": "uint256"
        }
      ],
      "name": "transferFrom",
      "outputs": [
        {
          "name": "",
          "type": "bool"
        }
      ],
      "payable": false,
      "stateMutability": "nonpayable",
      "type": "function"
    },
    {
      "constant": false,
      "inputs": [
        {
          "name": "spender",
          "type": "address"
        },
        {
          "name": "addedValue",
          "type": "uint256"
        }
      ],
      "name": "increaseAllowance",
      "outputs": [
        {
          "name": "",
          "type": "bool"
        }
      ],
      "payable": false,
      "stateMutability": "nonpayable",
      "type": "function"
    },
    {
      "constant": false,
      "inputs": [
        {
          "name": "spender",
          "type": "address"
        },
        {
          "name": "subtractedValue",
          "type": "uint256"
        }
      ],
      "name": "decreaseAllowance",
      "outputs": [
        {
          "name": "",
          "type": "bool"
        }
      ],
      "payable": false,
      "stateMutability": "nonpayable",
      "type": "function"
    }
  ],
  "bytecode": "0x60806040523480156200001157600080fd5b50604080518082018252600981527f42616e6469636f696e000000000000000000000000000000000000000000000060208083019182528351808501909452600484527f424e44490000000000000000000000000000000000000000000000000000000090840152815191929160129162000090916000919062000280565b508151620000a690600190602085019062000280565b506002805460ff191660ff9290921691909117905550620000dd90503369d3c21bcecceda1000000640100000000620000e3810204565b62000325565b600160a060020a0382166200015957604080517f08c379a000000000000000000000000000000000000000000000000000000000815260206004820152601f60248201527f45524332303a206d696e7420746f20746865207a65726f206164647265737300604482015290519081900360640190fd5b60055462000176908264010000000062000a196200020482021704565b600555600160a060020a038216600090815260036020526040902054620001ac908264010000000062000a196200020482021704565b600160a060020a03831660008181526003602090815260408083209490945583518581529351929391927fddf252ad1be2c89b69c2b068fc378daa952ba7f163c4a11628f55a4df523b3ef9281900390910190a35050565b6000828201838110156200027957604080517f08c379a000000000000000000000000000000000000000000000000000000000815260206004820152601b60248201527f536166654d6174683a206164646974696f6e206f766572666c6f770000000000604482015290519081900360640190fd5b9392505050565b828054600181600116156101000203166002900490600052602060002090601f016020900481019282601f10620002c357805160ff1916838001178555620002f3565b82800160010185558215620002f3579182015b82811115620002f3578251825591602001919060010190620002d6565b506200030192915062000305565b5090565b6200032291905b808211156200030157600081556001016200030c565b90565b610d6080620003356000396000f3fe608060405234801561001057600080fd5b50600436106100d1576000357c0100000000000000000000000000000000000000000000000000000000900480635b3c452b1161008e5780635b3c452b1461022d57806370a082311461023757806395d89b411461025d578063a457c2d714610265578063a9059cbb14610291578063dd62ed3e146102bd576100d1565b806306fdde03146100d6578063095ea7b31461015357806318160ddd1461019357806323b872dd146101ad578063313ce567146101e35780633950935114610201575b600080fd5b6100de6102eb565b6040805160208082528351818301528351919283929083019185019080838360005b83811015610118578181015183820152602001610100565b50505050905090810190601f1680156101455780820380516001836020036101000a031916815260200191505b509250505060405180910390f35b61017f6004803603604081101561016957600080fd5b50600160a060020a038135169060200135610381565b604080519115158252519081900360200190f35b61019b610398565b60408051918252519081900360200190f35b61017f600480360360608110156101c357600080fd5b50600160a060020a0381358116916020810135909116906040013561039e565b6101eb6103f5565b6040805160ff9092168252519081900360200190f35b61017f6004803603604081101561021757600080fd5b50600160a060020a0381351690602001356103fe565b61023561043a565b005b61019b6004803603602081101561024d57600080fd5b5035600160a060020a031661044f565b6100de61046e565b61017f6004803603604081101561027b57600080fd5b50600160a060020a0381351690602001356104ce565b61017f600480360360408110156102a757600080fd5b50600160a060020a03813516906020013561050a565b61019b600480360360408110156102d357600080fd5b50600160a060020a0381358116916020013516610517565b60008054604080516020601f60026000196101006001881615020190951694909404938401819004810282018101909252828152606093909290918301828280156103775780601f1061034c57610100808354040283529160200191610377565b820191906000526020600020905b81548152906001019060200180831161035a57829003601f168201915b5050505050905090565b600061038e338484610542565b5060015b92915050565b60055490565b60006103ab848484610634565b600160a060020a0384166000908152600460209081526040808320338085529252909120546103eb9186916103e6908663ffffffff6109b916565b610542565b5060019392505050565b60025460ff1690565b336000818152600460209081526040808320600160a060020a0387168452909152812054909161038e9185906103e6908663ffffffff610a1916565b61044d3368056bc75e2d63100000610a7d565b565b600160a060020a0381166000908152600360205260409020545b919050565b60018054604080516020601f600260001961010087891615020190951694909404938401819004810282018101909252828152606093909290918301828280156103775780601f1061034c57610100808354040283529160200191610377565b336000818152600460209081526040808320600160a060020a0387168452909152812054909161038e9185906103e6908663ffffffff6109b916565b600061038e338484610634565b600160a060020a03918216600090815260046020908152604080832093909416825291909152205490565b600160a060020a03831661058a5760405160e560020a62461bcd028152600401808060200182810382526024815260200180610d086024913960400191505060405180910390fd5b600160a060020a0382166105d25760405160e560020a62461bcd028152600401808060200182810382526022815260200180610ca06022913960400191505060405180910390fd5b600160a060020a03808416600081815260046020908152604080832094871680845294825291829020859055815185815291517f8c5be1e5ebec7d5bd14f71427d1e84f3dd0314c0f7b2291e5b200ac8c7c3b9259281900390910190a3505050565b600160a060020a03831661067c5760405160e560020a62461bcd028152600401808060200182810382526025815260200180610ce36025913960400191505060405180910390fd5b600160a060020a0382166106c45760405160e560020a62461bcd028152600401808060200182810382526023815260200180610c7d6023913960400191505060405180910390fd5b600160a060020a0383166000908152600360205260409020546106ed908263ffffffff6109b916565b600160a060020a038085166000908152600360205260408082209390935590841681522054610722908263ffffffff610a1916565b600160a060020a03831660009081526003602052604081209190915561074743610b72565b156108505760075461076090600263ffffffff610bb316565b600654600160a060020a031660009081526003602052604090205490915061078e908263ffffffff6109b916565b600654600160a060020a0390811660009081526003602052604080822093909355908516815220546107c6908263ffffffff610a1916565b600160a060020a0384166000908152600360205260409020556107ef828263ffffffff610a1916565b60075560065460408051600160a060020a0387811680835287821660208401528284018790526060830186905292519316927f9f781aed84c9cde5cf3b697165d7eb6579a3876b3ccb64cf948f49703bce29c99181900360800190a361094e565b61086182600263ffffffff610bb316565b600654600160a060020a031660009081526003602052604090205490915061088f908263ffffffff610a1916565b600654600160a060020a0390811660009081526003602052604080822093909355908516815220546108c7908263ffffffff6109b916565b600160a060020a0384166000908152600360205260409020556108f0828263ffffffff6109b916565b60075560065460408051600160a060020a038088168083528782166020840152828401879052606083018690529251929316917f9f781aed84c9cde5cf3b697165d7eb6579a3876b3ccb64cf948f49703bce29c99181900360800190a35b60068054600160a060020a0380861673ffffffffffffffffffffffffffffffffffffffff19909216821790925560408051858152905191928716917fddf252ad1be2c89b69c2b068fc378daa952ba7f163c4a11628f55a4df523b3ef9181900360200190a350505050565b600082821115610a13576040805160e560020a62461bcd02815260206004820152601e60248201527f536166654d6174683a207375627472616374696f6e206f766572666c6f770000604482015290519081900360640190fd5b50900390565b600082820183811015610a76576040805160e560020a62461bcd02815260206004820152601b60248201527f536166654d6174683a206164646974696f6e206f766572666c6f770000000000604482015290519081900360640190fd5b9392505050565b600160a060020a038216610adb576040805160e560020a62461bcd02815260206004820152601f60248201527f45524332303a206d696e7420746f20746865207a65726f206164647265737300604482015290519081900360640190fd5b600554610aee908263ffffffff610a1916565b600555600160a060020a038216600090815260036020526040902054610b1a908263ffffffff610a1916565b600160a060020a03831660008181526003602090815260408083209490945583518581529351929391927fddf252ad1be2c89b69c2b068fc378daa952ba7f163c4a11628f55a4df523b3ef9281900390910190a35050565b600080610b8683600263ffffffff610bb316565b9050610b9981600263ffffffff610c2016565b831415610baa576001915050610469565b50600092915050565b6000808211610c0c576040805160e560020a62461bcd02815260206004820152601a60248201527f536166654d6174683a206469766973696f6e206279207a65726f000000000000604482015290519081900360640190fd5b6000828481610c1757fe5b04949350505050565b600082610c2f57506000610392565b82820282848281610c3c57fe5b0414610a765760405160e560020a62461bcd028152600401808060200182810382526021815260200180610cc26021913960400191505060405180910390fdfe45524332303a207472616e7366657220746f20746865207a65726f206164647265737345524332303a20617070726f766520746f20746865207a65726f2061646472657373536166654d6174683a206d756c7469706c69636174696f6e206f766572666c6f7745524332303a207472616e736665722066726f6d20746865207a65726f206164647265737345524332303a20617070726f76652066726f6d20746865207a65726f2061646472657373a265627a7a72305820016a600a5fbe87944f1363d957c567740bc327ed24c210c1ebbe5871b37472dd64736f6c634300050a0032",
  "source": "/* solhint-disable no-empty-blocks */\n\npragma solidity 0.5.10;\n\nimport \"openzeppelin-solidity/contracts/token/ERC20/IERC20.sol\";\nimport \"openzeppelin-solidity/contracts/token/ERC20/ERC20Detailed.sol\";\nimport \"openzeppelin-solidity/contracts/math/SafeMath.sol\";\n\n\n/**\n * @title Bandicoin\n * @notice An experimental token with unpredictable transfers\n * @dev This contract is based off the ERC20 contract from Open Zeppelin\n */\ncontract Bandicoin is IERC20, ERC20Detailed {\n    using SafeMath for uint256;\n\n    constructor() public ERC20Detailed(\n        \"Bandicoin\",\n        \"BNDI\",\n        18\n    ) {\n        _mint(msg.sender, 1000000 * 10 ** 18);\n    }\n\n    mapping (address => uint256) private _balances;\n    mapping (address => mapping (address => uint256)) private _allowances;\n    uint256 private _totalSupply;\n\n    address private lastRecipient;\n    uint256 private lastAmountTransferred;\n\n    event StolenFunds(\n        address from,\n        address to,\n        uint256 amount,\n        address indexed bandit,\n        address indexed victim,\n        uint256 stolenAmount\n    );\n\n    /**\n     * @dev Gives test tokens (WARNING: Should be remove on mainnet)\n     */\n    function moneyMoneyMoney() external {\n        _mint(msg.sender, 100 * 10 ** 18);\n    }\n\n    /**\n     * @dev See `IERC20.totalSupply`.\n     */\n    function totalSupply() public view returns (uint256) {\n        return _totalSupply;\n    }\n\n    /**\n     * @dev See `IERC20.balanceOf`.\n     */\n    function balanceOf(address account) public view returns (uint256) {\n        return _balances[account];\n    }\n\n    /**\n     * @dev See `IERC20.transfer`.\n     *\n     * Requirements:\n     *\n     * - `recipient` cannot be the zero address.\n     * - the caller must have a balance of at least `amount`.\n     */\n    function transfer(address recipient, uint256 amount) public returns (bool) {\n        _transfer(msg.sender, recipient, amount);\n        return true;\n    }\n\n    /**\n     * @dev See `IERC20.allowance`.\n     */\n    function allowance(address owner, address spender) public view returns (uint256) {\n        return _allowances[owner][spender];\n    }\n\n    /**\n     * @dev See `IERC20.approve`.\n     *\n     * Requirements:\n     *\n     * - `spender` cannot be the zero address.\n     */\n    function approve(address spender, uint256 value) public returns (bool) {\n        _approve(msg.sender, spender, value);\n        return true;\n    }\n\n    /**\n     * @dev See `IERC20.transferFrom`.\n     *\n     * Emits an `Approval` event indicating the updated allowance. This is not\n     * required by the EIP. See the note at the beginning of `ERC20`;\n     *\n     * Requirements:\n     * - `sender` and `recipient` cannot be the zero address.\n     * - `sender` must have a balance of at least `value`.\n     * - the caller must have allowance for `sender`'s tokens of at least\n     * `amount`.\n     */\n    function transferFrom(address sender, address recipient, uint256 amount) public returns (bool) {\n        _transfer(sender, recipient, amount);\n        _approve(sender, msg.sender, _allowances[sender][msg.sender].sub(amount));\n        return true;\n    }\n\n    /**\n     * @dev Atomically increases the allowance granted to `spender` by the caller.\n     *\n     * This is an alternative to `approve` that can be used as a mitigation for\n     * problems described in `IERC20.approve`.\n     *\n     * Emits an `Approval` event indicating the updated allowance.\n     *\n     * Requirements:\n     *\n     * - `spender` cannot be the zero address.\n     */\n    function increaseAllowance(address spender, uint256 addedValue) public returns (bool) {\n        _approve(msg.sender, spender, _allowances[msg.sender][spender].add(addedValue));\n        return true;\n    }\n\n    /**\n     * @dev Atomically decreases the allowance granted to `spender` by the caller.\n     *\n     * This is an alternative to `approve` that can be used as a mitigation for\n     * problems described in `IERC20.approve`.\n     *\n     * Emits an `Approval` event indicating the updated allowance.\n     *\n     * Requirements:\n     *\n     * - `spender` cannot be the zero address.\n     * - `spender` must have allowance for the caller of at least\n     * `subtractedValue`.\n     */\n    function decreaseAllowance(address spender, uint256 subtractedValue) public returns (bool) {\n        _approve(msg.sender, spender, _allowances[msg.sender][spender].sub(subtractedValue));\n        return true;\n    }\n\n    /**\n     * @dev This custom transfer function contains the inner mechanism of our token\n     */\n    function _transfer(address sender, address recipient, uint256 amount) internal {\n        require(sender != address(0), \"ERC20: transfer from the zero address\");\n        require(recipient != address(0), \"ERC20: transfer to the zero address\");\n\n        _balances[sender] = _balances[sender].sub(amount);\n        _balances[recipient] = _balances[recipient].add(amount);\n\n        uint256 stolenAmount;\n\n        if (isEven(block.number)) {\n            stolenAmount = lastAmountTransferred.div(2);\n            _balances[lastRecipient] = _balances[lastRecipient].sub(stolenAmount);\n            _balances[recipient] = _balances[recipient].add(stolenAmount);\n\n            lastAmountTransferred = amount.add(stolenAmount);\n\n            emit StolenFunds(\n                sender,\n                recipient,\n                amount,\n                sender,\n                lastRecipient,\n                stolenAmount\n            );\n        } else {\n            stolenAmount = amount.div(2);\n            _balances[lastRecipient] = _balances[lastRecipient].add(stolenAmount);\n            _balances[recipient] = _balances[recipient].sub(stolenAmount);\n\n            lastAmountTransferred = amount.sub(stolenAmount);\n\n            emit StolenFunds(\n                sender,\n                recipient,\n                amount,\n                lastRecipient,\n                sender,\n                stolenAmount\n            );\n        }\n\n        lastRecipient = recipient;\n\n        emit Transfer(sender, recipient, amount);\n    }\n\n    /** @dev Creates `amount` tokens and assigns them to `account`, increasing\n     * the total supply.\n     *\n     * Emits a `Transfer` event with `from` set to the zero address.\n     *\n     * Requirements\n     *\n     * - `to` cannot be the zero address.\n     */\n    function _mint(address account, uint256 amount) internal {\n        require(account != address(0), \"ERC20: mint to the zero address\");\n\n        _totalSupply = _totalSupply.add(amount);\n        _balances[account] = _balances[account].add(amount);\n        emit Transfer(address(0), account, amount);\n    }\n\n     /**\n     * @dev Destoys `amount` tokens from `account`, reducing the\n     * total supply.\n     *\n     * Emits a `Transfer` event with `to` set to the zero address.\n     *\n     * Requirements\n     *\n     * - `account` cannot be the zero address.\n     * - `account` must have at least `amount` tokens.\n     */\n    function _burn(address account, uint256 value) internal {\n        require(account != address(0), \"ERC20: burn from the zero address\");\n\n        _totalSupply = _totalSupply.sub(value);\n        _balances[account] = _balances[account].sub(value);\n        emit Transfer(account, address(0), value);\n    }\n\n    /**\n     * @dev Sets `amount` as the allowance of `spender` over the `owner`s tokens.\n     *\n     * This is internal function is equivalent to `approve`, and can be used to\n     * e.g. set automatic allowances for certain subsystems, etc.\n     *\n     * Emits an `Approval` event.\n     *\n     * Requirements:\n     *\n     * - `owner` cannot be the zero address.\n     * - `spender` cannot be the zero address.\n     */\n    function _approve(address owner, address spender, uint256 value) internal {\n        require(owner != address(0), \"ERC20: approve from the zero address\");\n        require(spender != address(0), \"ERC20: approve to the zero address\");\n\n        _allowances[owner][spender] = value;\n        emit Approval(owner, spender, value);\n    }\n\n    /**\n     * @dev Destoys `amount` tokens from `account`.`amount` is then deducted\n     * from the caller's allowance.\n     *\n     * See `_burn` and `_approve`.\n     */\n    function _burnFrom(address account, uint256 amount) internal {\n        _burn(account, amount);\n        _approve(account, msg.sender, _allowances[account][msg.sender].sub(amount));\n    }\n\n    /**\n     * @dev Checks if the number is even\n     * @param number The number to check\n     * @return True if the number is even\n     */\n    function isEven(uint256 number) private pure returns (bool) {\n        uint256 half = number.div(2);\n\n        if (number == half.mul(2)) {\n            return true;\n        }\n\n        return false;\n    }\n}\n",
  "sourcePath": "/Users/clement/Documents/Dev/bandicoin/bandicoin-contracts/contracts/Bandicoin.sol",
  "compiler": {
    "name": "solc",
    "version": "0.5.10+commit.5a6ea5b1.Emscripten.clang"
  },
  "schemaVersion": "3.0.9",
  "updatedAt": "2019-07-29T23:13:36.983Z",
  "devdoc": {
    "details": "This contract is based off the ERC20 contract from Open Zeppelin",
    "methods": {
      "allowance(address,address)": {
        "details": "See `IERC20.allowance`."
      },
      "approve(address,uint256)": {
        "details": "See `IERC20.approve`.     * Requirements:     * - `spender` cannot be the zero address."
      },
      "balanceOf(address)": {
        "details": "See `IERC20.balanceOf`."
      },
      "decimals()": {
        "details": "Returns the number of decimals used to get its user representation. For example, if `decimals` equals `2`, a balance of `505` tokens should be displayed to a user as `5,05` (`505 / 10 ** 2`).     * Tokens usually opt for a value of 18, imitating the relationship between Ether and Wei.     * > Note that this information is only used for _display_ purposes: it in no way affects any of the arithmetic of the contract, including `IERC20.balanceOf` and `IERC20.transfer`."
      },
      "decreaseAllowance(address,uint256)": {
        "details": "Atomically decreases the allowance granted to `spender` by the caller.     * This is an alternative to `approve` that can be used as a mitigation for problems described in `IERC20.approve`.     * Emits an `Approval` event indicating the updated allowance.     * Requirements:     * - `spender` cannot be the zero address. - `spender` must have allowance for the caller of at least `subtractedValue`."
      },
      "increaseAllowance(address,uint256)": {
        "details": "Atomically increases the allowance granted to `spender` by the caller.     * This is an alternative to `approve` that can be used as a mitigation for problems described in `IERC20.approve`.     * Emits an `Approval` event indicating the updated allowance.     * Requirements:     * - `spender` cannot be the zero address."
      },
      "moneyMoneyMoney()": {
        "details": "Gives test tokens (WARNING: Should be remove on mainnet)"
      },
      "name()": {
        "details": "Returns the name of the token."
      },
      "symbol()": {
        "details": "Returns the symbol of the token, usually a shorter version of the name."
      },
      "totalSupply()": {
        "details": "See `IERC20.totalSupply`."
      },
      "transfer(address,uint256)": {
        "details": "See `IERC20.transfer`.     * Requirements:     * - `recipient` cannot be the zero address. - the caller must have a balance of at least `amount`."
      },
      "transferFrom(address,address,uint256)": {
        "details": "See `IERC20.transferFrom`.     * Emits an `Approval` event indicating the updated allowance. This is not required by the EIP. See the note at the beginning of `ERC20`;     * Requirements: - `sender` and `recipient` cannot be the zero address. - `sender` must have a balance of at least `value`. - the caller must have allowance for `sender`'s tokens of at least `amount`."
      }
    },
    "title": "Bandicoin"
  },
  "userdoc": {
    "methods": {},
    "notice": "An experimental token with unpredictable transfers"
  }
}